:020000040800F2
:100000003805002001010008DF190008E715000885
:10001000DD19000841020008E31B00080000000091
:10002000000000000000000000000000191A000895
:100030007302000800000000171A0008851A000863
:100040001B0100081B0100081B0100081B01000820
:100050001B0100081B010008750200081B010008B5
:100060001B0100081B0100081B0100081B01000800
:100070001B0100081B0100081B0100081B010008F0
:100080001B0100081B0100081B0100081B010008E0
:100090001B0100081B0100081B0100081B010008D0
:1000A0001B0100081B0100081B0100081B010008C0
:1000B000051B0008111B0008000000001B010008C0
:1000C0001B01000800000000000000001B010008E8
:1000D000000000001B0100081B01000800000000D8
:1000E0001B0100081B0100081B010008DFF80CD0F1
:1000F00000F02AF800480047011D000838050020DC
:100100000648804706480047FEE7FEE7FEE7FEE7B1
:10011000FEE7FEE7FEE7FEE7FEE7FEE7011B00085D
:10012000ED000008D2B201E000F8012B491EFBD21D
:1001300070470022F6E710B513460A4604461946F2
:10014000FFF7F0FF204610BD064C074D06E0E068C3
:1001500040F0010394E8070098471034AC42F6D30E
:10016000FFF7C8FFB81D0008D81D000870B5044689
:1001700000688168C943C90717D1816821F001016E
:10018000816000F0EDFB05460AE000BF00F0E8FBEF
:10019000401B022804D920688068C043C00706D0ED
:1001A00020688068C043C007F0D0002070BDA06AFE
:1001B00040F01000A062E06A40F00100E06201201F
:1001C00070BD0000F8B500260446009600688168FE
:1001D000C943C9072DD0816841F0010181601648EB
:1001E00016490068B0FBF1F000E0401E00900028C6
:1001F000FBD100F0B5FB054616E000BF00F0B0FBF8
:10020000401B022810D920688068C043C0070BD06B
:10021000A06A40F01000A062E06A40F00100E062D5
:1002200084F824600120F8BD20688068C043C007BE
:10023000E4D10020F8BD00000C00002040420F0077
:10024000FEE710B51E21012001F0E8FB4FF4C87055
:1002500000F06AFA3221002001F0E0FBB42000F047
:1002600063FA01F007FCBDE810404FF4FA6000F0BB
:100270005BBA7047012000F081BA0000F8B5002495
:10028000009490F824202546012A12D0012280F8FB
:1002900024204A681F23072A0DD20668776B521E56
:1002A00002EB820293409F430B6893401F437763A6
:1002B00019E00220F8BD06680D2A0AD2376BD21F5A
:1002C00002EB820293409F430B6893401F433763C6
:1002D00009E0F76A0D3A02EB820293409F430B68F4
:1002E00093401F43F7620A68072306680A2A0AD365
:1002F000F7680A3A02EB420293409F438B689340AF
:100300001F43F76008E0376902EB420293409F43C6
:100310008B6893401F4337610A68102A01D0112A65
:1003200020D1124B02689A4217D193681B0219D44C
:10033000936843F4000393600968102912D10C49B3
:100340000C4A0968B1FBF2F101EB8101490000E0C0
:10035000491E00910029FBD104E0816A41F020018F
:100360008162012480F824502046F8BD0024014019
:100370000C00002040420F00806A70470068C06C8B
:10038000704700002DE9F0414FF0000704003D46A2
:100390007ED0A06A002628B9E66284F82460204650
:1003A00000F07EF82046FFF7E1FEA16A01F010019F
:1003B000014304D0A06A40F01000A06268E0A16A86
:1003C00021F4885141F00201A1626268E169237B56
:1003D0000A4347EA43010A43A1684FF48077B942D0
:1003E00008D0012906D0002194F814C0BCF1010FF7
:1003F00002D00AE03946F7E7F3B1A36A43F02003DD
:10040000A362E36A43F00103E3622368D3F804C004
:100410002CF4694C4CEA010CC3F804C023689968B9
:10042000DFF870C001EA0C0111439960A168B9427C
:100430000BD0012909D00CE0DFF85CC0A3690CEBFC
:1004400043330B4343F40061DFE7218A0D05A5F533
:1004500080152168CB6A23F470032B43CB6221689B
:1004600089680E4B1940914208D1E662A16A21F0D9
:10047000020141F00101A162BDE8F081A06A20F013
:10048000020040F01000A062E06A40F00100E0626B
:100490000120F1E7FDF7E1FF00E0FFFFFE0E1FFF87
:1004A00000B585B00021009101910291039100688F
:1004B0000E49884218D10E48816941F4007181616A
:1004C000816901F400710491816941F00401816145
:1004D0008069694600F00400049002200090032027
:1004E0000190044800F056F905B000BD0024014019
:1004F00000100240000801402DE9F84300270D4696
:100500000446009700F02CFA804620688168C905EF
:1005100008D5A06A40F02000A06284F82470012071
:10052000BDE8F8834168C90503D4C06A10F4700FB0
:100530002AD0022000F0D4FA3B490968B1FBF0F65A
:100540002068036939490B424FEA61014FEAA11261
:100550001FD1C3684FEA611C13EA0C0F19D103695C
:100560000B4225D1C068104222D1142023E0681C20
:100570000AD02DB100F0F4F9A0EB0800A84203D98D
:1005800020680068800725D5206800688007EED5C0
:100590002DE003690B4202D1C168114206D0026905
:1005A00023490A4206D1C068084203D1542002E020
:1005B000292000E0FC204643009816E0681C11D07A
:1005C0002DB100F0CDF9A0EB0800A8420AD900989F
:1005D000B04207D2A06A40F00400A06284F8247000
:1005E00003209DE70098401C0090B042E6D32168AC
:1005F0006FF012000860A06A40F40070A0622068EA
:100600008068C0F3424007280CD1207B50B9A06A13
:1006100020F48070A062A06AC00403D4A06A40F0F5
:100620000100A06200207BE70C00002024499224F6
:100630004992240070B5044690F8240001280DD09A
:10064000012084F824002046FFF7BCFD02004FF093
:10065000000005D084F82400104670BD022070BD53
:10066000A16A40F20123994341F48071A1621F4DB8
:1006700023681F49AB4218D10E6816F4702F14D0AE
:10068000A66A46F48016A6620E68760505D5A66AA7
:1006900026F4005646F48056A662A66AF6040AD5E9
:1006A000E66A26F00606E66206E0A66A26F48016EA
:1006B000A6625E68E9E7E06284F824006FF0020059
:1006C000186020688368C3F34243072B05D1A84212
:1006D00008D1096811F4702F04D0816841F48011A9
:1006E0008160B9E7816841F4A001F9E70028014081
:1006F0000424014010B5044690F82400012807D0D6
:10070000012084F824002046FFF730FD10B107E0F7
:10071000022010BDA16A21F4885141F00101A162BB
:10072000002184F8241010BD70B5044600F018F9BB
:100730000546601C02D004480078044400F010F91B
:10074000401BA042FAD370BD0000002010B5012864
:100750000CD1074800F05CFF064900200122087018
:10076000BDE810400821044800F0F4B810BD0000B6
:10077000C31C000829000020000C0140044910B5EA
:100780000A68024202D00860FFF7E0FF10BD0000D7
:10079000140401402DE9F84FDFF89C91002409F181
:1007A000040A0AF1040B23460F270BF1040EBBE0E9
:1007B0000125A5402A40AA4276D1DFF880C14E68C3
:1007C000A6EB0C0866452BD00DDC032E34D005DCDF
:1007D00036B3012E19D0022E2FD11BE0112E16D0C8
:1007E000122E2AD119E0B8F5881F19D006DCB8F509
:1007F000803F15D0B8F5801F1FD111E0B8F5001F5C
:100800000ED0B8F5041F18D10AE0CB6815E0CB680C
:100810001B1D12E0CB6808330FE0CB680C330CE0F3
:100820008B682BB1012B4FF0080303D0456104E026
:10083000042302E0056100E00023FF2A01D80646F8
:1008400001E000F104064FEA840501D9A5F1200575
:10085000D6F8008007FA05FC28EA0C0803FA05F52B
:1008600048EA0508C6F800804D68ED005BD5344DB8
:10087000AE6946F00106AE61AD6924F0030605F0ED
:10088000010500952F4D06EB050CDCF80850A60776
:10089000360F07FA06F825EA0805DFF8AC80404570
:1008A00003D14FF0000810E03DE0DFF8A0804045A4
:1008B00002D14FF0010808E0DFF89480404502D1F2
:1008C0004FF0020801E04FF0030808FA06F848EA82
:1008D0000508CCF808804D68D9F80060ED034D4656
:1008E00001D5164300E096432E604D68DAF80060AB
:1008F000AD03554601D5164300E096432E604D6882
:10090000DBF80060ED025D4601D5164300E096433A
:100910002E604D68DEF80060AD02754601D51643C5
:1009200000E096432E60641C0A6832FA04F57FF4F6
:100930003FAFBDE8F88F0000000401400000111037
:10094000001002400000014000080140000C01407E
:10095000001001400AB1016170470904FBE7000083
:10096000014880687047000000000020024881684C
:10097000027811448160704700000020074810B5DC
:10098000016841F010010160032000F075F80020BB
:1009900000F006F800F024F8002010BD002002400E
:1009A00070B50D4D04464FF47A712878B1FBF0F024
:1009B0000A490968B1FBF0F000F0D8FB48B9102CE7
:1009C00007D200222146501E00F036F800206C604D
:1009D00070BD012070BD0000000000200C00002050
:1009E0000C4808B5816941F001018161816901F01C
:1009F00001010091C16941F08051C161C06900F0FD
:100A0000805000900448416821F0E06141F000719D
:100A1000416008BD0010024000000140002809DBD1
:100A200000F01F02012191404009800000F1E02008
:100A3000C0F8001170470000F0B40E4B1B680C4664
:100A4000C3F30223C3F10705042D00D90425191DA2
:100A5000072901D2002300E0DB1E012606FA05F17A
:100A6000491E214099409E40761E16403143F0BCFD
:100A700001F008B90CED00E0064900F00702086833
:100A80004FF6FF03184040EA0220034A1043086073
:100A9000704700000CED00E00000FA050E4A10B5AA
:100AA000136823F002031360136823F00103034368
:100AB00013600A4C206840F004002060012909D02E
:100AC00040BF00F0A5FF00F0A3FF206820F0040065
:100AD000206010BD30BFF8E70070004010ED00E06E
:100AE00010B529A401461DCC86B08DE81D002AA0B2
:100AF0002A4C006804900020012923D002293AD012
:100B000010291DD161682268D20119D5C1F3834231
:100B1000C9031DF8020009D5616804AAC1F3404168
:100B2000515C1F4AB2FBF1F1484301E01D494843C3
:100B30006168490204D440005FF00301B0FBF1F0AA
:100B400006B010BD226AC2F30121012903D1920728
:100B500001D5C803F4E7022905D1626A920702D5DC
:100B600049F64040ECE70329EAD121688903E7D53B
:100B70004FF22440E4E700F023F96168C1F38131CA
:100B8000491C4900DAE700000203040506070809CA
:100B90000A0B0C0D0E0F1010010200000010024095
:100BA00000127A0000093D002DE9F843054600785F
:100BB000354CC00754D0E0690026C00008D4E06975
:100BC00040F08050E061E069012600F08050009024
:100BD0002E480168C90512D40168804641F480712D
:100BE0000160FFF7BDFE074605E000BFFFF7B8FE56
:100BF000C01B642823D8D8F80000C005F6D5206AA9
:100C000010F4407021D0A98801F4407181421CD0B9
:100C1000206A1F49012220F440700A6000220A6005
:100C20002062C00711D0FFF79BFE074641F28838CB
:100C300008E000BFFFF794FEC11B414502D9032025
:100C4000BDE8F883206A8007F4D5206A696820F43B
:100C50004070084320621EB1E06920F08050E061DE
:100C60002878800705D56068A96820F440400843CB
:100C700060602878C00605D56068E96820F48000C7
:100C8000084360600020DBE7001002400070004075
:100C9000400442422DE9F0470F46050061D0434E23
:100CA000306800F00700B84209D2306820F0070031
:100CB00038433060306800F00700B84251D12868EE
:100CC0003B4C810712D5400703D5606840F4E060D3
:100CD00060602878000703D5606840F46050606069
:100CE0006068A96820F0F000084360602878C007B9
:100CF00028D06868012810D02168022810D0890700
:100D000000292EDA616821F0030101436160FFF7D9
:100D100027FE804641F288390DE021688903EFE71C
:100D20008901EDE7FFF71CFEA0EB0801494502D958
:100D30000320BDE8F0876068696800F00C00B0EB44
:100D4000810FEFD1306800F00700B8420BD930684E
:100D500020F0070038433060306800F00700B842E8
:100D600001D00120E5E72878400705D56068E968EB
:100D700020F4E060084360602878000706D56068CA
:100D8000296920F4605040EAC100606000F028F852
:100D90006168084AC1F30311515CC8400649086004
:100DA00006480068FFF7FCFD0020C2E70020024073
:100DB00000100240A01D00080C00002004000020CC
:100DC0000448054900684968044AC1F3C221515CDE
:100DD000C84070470C00002000100240B01D000801
:100DE00012A185B00FC98DE80F0014A0144A006845
:100DF00004905168134801F00C03042B10D0082B09
:100E00000ED1C1F38343C9031DF803000AD551680D
:100E100004AAC1F34041515C0A4A5043B0FBF1F0CF
:100E200005B0704708494843FAE70000020304058B
:100E3000060708090A0B0C0D0E0F10100102000026
:100E40000010024000127A0000093D002DE9F84F21
:100E5000040070D02078C04DC00749D06868C0F346
:100E60008100012807D06868C0F38100022809D1F9
:100E70006868C00306D52868800339D560680028F3
:100E8000E7D035E06068B0F5803F0BD010B1B0F529
:100E9000A02F11D0286820F480302860286820F422
:100EA000802002E0286840F480302860606890B1BB
:100EB000FFF756FD06460AE0286840F480202860C7
:100EC000F0E700BFFFF74CFD801B642873D828684B
:100ED0008003F7D50CE0FFF743FD064605E000BFB1
:100EE000FFF73EFD801B6428F0D828688003F7D404
:100EF00020789A4E80074FF001094FF0000839D54D
:100F0000686810F00C0F07D06868C0F381000228F1
:100F100009D16868C00306D42868800714D5206901
:100F2000012808D110E02069B0B1C6F80090FFF7A1
:100F300017FD074605E00AE1FFF712FDC01B022876
:100F4000C4D828688007F7D52868616920F0F800C0
:100F500040EAC10028600DE0C6F80080FFF700FD00
:100F6000074604E0FFF7FCFCC01B022823D82868D2
:100F70008007F7D4207800072CD57948A169D9B12A
:100F8000C0F80090FFF7ECFC074604E0FFF7E8FC30
:100F9000C01B02280FD8686A8007F7D571484FF444
:100FA000FA510068B0FBF1F0009000BF0098411EBC
:100FB0000091FAD20EE080E0C0F80080FFF7D0FC8C
:100FC000074604E0FFF7CCFCC01B022875D8686A0E
:100FD0008007F7D42078400760D5E8690027C00073
:100FE00008D4E86940F08050E861E869012700F022
:100FF000805000905C480168C90513D4016883469D
:1010000041F480710160FFF7ABFC824606E000BF4F
:10101000FFF7A6FCA0EB0A0064284ED8DBF800001E
:10102000C005F5D5E06801280AD008B1052813D01D
:10103000286A20F001002862286A20F0040002E0FB
:10104000286A40F001002862E06841F2883B98B1CC
:10105000FFF786FC82460BE0286A40F00400286215
:10106000EEE700BFFFF77CFCA0EB0A0159455AD818
:10107000286A8007F6D50CE0FFF772FC824605E08F
:10108000FFF76EFCA0EB0A0159454CD8286A80078F
:10109000F6D41FB1E86920F08050E861E06988B3B8
:1010A0006968C1F38101022944D00228C6F8608032
:1010B00004D0FFF755FC044638E034E0FFF750FC5D
:1010C000074604E0FFF74CFCC01B02282BD8286819
:1010D0008001F7D4206AB0F5803F05D16868A16827
:1010E00020F4003008436860D4E9080108436968C7
:1010F00021F4741108436860C6F86090FFF730FC73
:10110000044606E025E000BFFFF72AFC001B02288A
:1011100009D828688001F7D51BE000BFFFF720FC45
:10112000001B022802D90320BDE8F88F286880013F
:10113000F4D40EE00128F7D06868226A00F4803108
:10114000914204D1616A00F47010884201D00120FC
:10115000EAE70020E8E700000010024000004242F9
:10116000800442420C0000200070004010B5401E78
:10117000B0F1807F01D3012010BD4FF0E024606109
:101180000F21601700F07EFD0020A0610720206184
:10119000002010BD7047704770B590F83C20012AC0
:1011A00023D0012480F83C40022280F83D200368CF
:1011B0005A689D6822F070060A6832435A600C4BE8
:1011C00002689A4205D0B2F1804F02D0094B9A4290
:1011D00004D1496825F080031943916080F83D40AF
:1011E000002180F83C10084670BD022070BD000050
:1011F000002C01400004004010B5040003D094F816
:101200003D0010B107E0012010BD002084F83C0033
:10121000204600F01FF8022084F83D00211D2068C0
:1012200000F07CFC012084F8460084F83E0084F83D
:101230003F0084F8400084F8410084F8420084F8BC
:10124000430084F8440084F8450084F83D00002001
:1012500010BD000008B51A4A01681A48914208D129
:10126000816941F400618161806900F4006000904F
:1012700008BDB1F1804F14D0134A9142F8D1C16931
:1012800041F00201C161C069002200F0020000903B
:1012900007211D20FFF7D0FB1D20BDE80840FFF708
:1012A000BDBBC16941F00101C161C069002200F00C
:1012B0000100009004211C20FFF7BEFB1C20ECE77E
:1012C000002C0140001002400004004090F83D1046
:1012D000012901D001207047022180F83D100068EB
:1012E0000949884205D0B0F1804F02D007498842B1
:1012F00004D1816801F00701062903D0016841F09B
:101300000101016000207047002C014000040040F2
:1013100090F83D10012901D001207047022180F88A
:101320003D100168CA6842F00102CA6000680A49BB
:10133000884205D0B0F1804F02D00849884204D1DC
:10134000816801F00701062903D0016841F001011D
:101350000160002070470000002C014000040040A4
:1013600001680A6A41F211131A4207D10A6A9B10F6
:101370001A4203D10A6822F001020A60012180F8B2
:101380003D100020704770B5044690F83C000128DD
:1013900017D0012584F83C50022084F83D002068D5
:1013A000826822F0770222F47F4282600868502827
:1013B00030D00DDC20284DD005DC98B310283BD16F
:1013C00048E0022070BD302844D0402834D139E0B4
:1013D000602828D0702806D0B0F5805F2CD0B0F5FA
:1013E000005F29D10AE0CB68D1E90121206800F033
:1013F000C3FB2068816841F0770109E0CB68D1E93F
:101400000121206800F0B8FB2068816841F4804128
:10141000816011E0CA684968206800F0BFFB502174
:10142000206807E016E0CA684968206800F0C7FB3A
:101430006021206800F0AAFB84F83D50002084F869
:101440003C0070BDCA684968206800F0A7FB4021D5
:101450002068EFE7226801461046EBE7704770B559
:101460000446006801694FF00005C943890715D497
:10147000C168C943890711D4E91E016101202077A1
:10148000206880698007204602D0FFF7E7FF04E06C
:1014900000F098F8204600F096F82577206801695A
:1014A000C943490717D4C168C943490713D46FF02A
:1014B00004010161022020772068806910F4407FD8
:1014C000204602D0FFF7CAFF04E000F07BF8204678
:1014D00000F079F8257720680169C943090716D417
:1014E000C168C943090712D46FF0080101610420E3
:1014F00020772068C0698007204602D0FFF7AEFF42
:1015000004E000F05FF8204600F05DF825772068E1
:101510000169C943C90617D4C168C943C90613D4B0
:101520006FF010010161082020772068C06910F475
:10153000407F204602D0FFF791FF04E000F042F820
:10154000204600F040F8257720680169C943C907A3
:1015500008D1C168C943C90704D1891E0161204669
:1015600000F032F820680169C943090609D4C1684E
:10157000C943090605D46FF0800101612046FFF7D9
:1015800009FE20680169C943490609D4C168C943F5
:10159000490605D46FF040010161204600F022F8B1
:1015A00020680169C94389060BD4C168C94389060B
:1015B00007D46FF0200101612046BDE87040FFF7BD
:1015C000EABD70BD704770470549884201D100F0FF
:1015D00035BA03494831884201D100F097B87047C5
:1015E000A40000207047FEE710B5074C2078C10723
:1015F000064801D0002200E001220821FFF7AAF9E5
:101600002078401C207010BD28000020000C0140F4
:101610002DE9F04180463B4801263B4D07780024E8
:10162000AFB129460B6800F10C010A1D012F13D040
:10163000022F25D15B6A40F2E737A3F26D2C83605D
:10164000BC452ED203795B0003F0FE0331E0067047
:101650002D48FFF73BFE4DE05D6A40F2CF77A5F5E0
:10166000405CACF1D50C02268560BC450AD2067000
:101670005C62C47000228C54521C042AFBDB04718F
:10168000BDE8F081A5F520550B3DBD420470F7D2B1
:10169000C6700020155C0D54401C0428FADB5C6207
:1016A000EEE7A3F2D763BB4227D203795B0043F096
:1016B0000103037143785B1C4370DBB2082B06D334
:1016C000447083780779CF545B1C837004718378EE
:1016D000042B0FD3447084700470C6700471002012
:1016E0000B5C1354401C0428FADB0748FFF738FE54
:1016F0004046804728684462C2E7047044708470A2
:101700000471F7E7100000205C00002010B50E4CBB
:101710002078062802D2FFF767FF04E06078401CBB
:10172000607000F05FFA607806280CD300206070CB
:10173000024608210548FFF70DF900F0C3FABDE89D
:10174000104000F0CBBA10BD28000020000C014072
:101750003EB5002410480094019402940D49846021
:10176000016004730475012505614FF46021446034
:10177000C161FEF707FE08B172B6FEE70095CDE93C
:10178000015469460448FEF779FD002801D072B67D
:10179000FEE73EBD002401402C0000202DE9F0436F
:1017A00085B000253948009501950295039581691A
:1017B00041F010018161816901F01001049181699A
:1017C00041F020018161816901F02001049181696A
:1017D00041F004018161816901F004010491816992
:1017E00041F0080181618069012200F00800DFF802
:1017F000A0909702049039464846FFF7ABF80022C4
:1018000008214846FFF7A6F84FF460400324CDE9CD
:10181000000469461F48FEF7BDFF01261E48DFF899
:101820007C80CDE90060694640460296FEF7B2FF33
:1018300049F6FC70CDE9000469464046FEF7AAFF70
:101840004FF6F730CDE9000469464846FEF7A2FF9F
:10185000112000970394CDE9010569464846FEF73B
:1018600099FF0820CDE900060220CDE90250694623
:101870004846FEF78FFF002211460620FFF7DCF8EE
:101880000620FFF7CBF805B0BDE8F083001002405A
:10189000000C014000100140000021100008014030
:1018A00010B586B000241748009401940294039464
:1018B00004941349059401604721C0E901144FF6CF
:1018C000FF71C0E9031444618461FFF795FC08B11E
:1018D00072B6FEE74FF48050009069460948FFF762
:1018E00052FD08B172B6FEE7049404A905480594B8
:1018F000FFF752FC002801D072B6FEE706B010BD1B
:10190000002C01405C00002010B586B00024174870
:10191000009401940294039404944FF08041059440
:1019200001604721C0E901141421C0E90314846156
:10193000FFF762FC08B172B6FEE74FF480500090EA
:1019400069460A48FFF71FFD08B172B6FEE7049426
:1019500004A906480594FFF71FFC08B172B6FEE71C
:101960000248FFF7D5FC06B010BD0000A40000201F
:1019700010B586B000241848009401940294039492
:10198000049414490594016041F61F41C0E9011413
:1019900042F21071C0E903148461FFF72DFC08B115
:1019A00072B6FEE74FF48050009069460A48FFF790
:1019B000EAFC08B172B6FEE7049404A9064805944F
:1019C000FFF7EAFB08B172B6FEE70348FFF7A0FC99
:1019D00006B010BD00040040EC000020FEE7FEE76A
:1019E00010B51E21002000F019F84FF4C870FEF762
:1019F0009BFE3221012000F011F86420FEF794FED6
:101A000000F038F8BDE810404FF4FA60FEF78CBEE5
:101A100020BF00BF7047704770470000322900D3D5
:101A20003121054A20B1012801D14D315180704743
:101A3000C1F14B00508070472400002010B50B4CC2
:101A40004FF480612088401C82B22280638808485D
:101A50009A4201D2012200E00022FEF77BFF20889B
:101A6000B0F57A7F01D30020208010BD2400002033
:101A7000000C0140024800210180418070470000B5
:101A800024000020FEF772BF30B593B028216846CD
:101A9000FEF74FFB14210AA8FEF74BFB002501209F
:101AA0000F9510951195010412958DE8230004906F
:101AB0004FF4E010CDE90810022407946846FFF7C0
:101AC000C5F908B172B6FEE70AA90F2081E8310016
:101AD0004FF48060CDE90D0502210AA8FFF7DAF87E
:101AE00008B172B6FEE74FF4004011900F940FA8B2
:101AF000FFF75AF8002801D072B6FEE713B030BDE8
:101B0000704700000148FFF7AABC0000A4000020B5
:101B10000148FFF7A4BC0000EC00002070B502688B
:101B2000134B144C4FF08046984203D0B04201D082
:101B3000A04203D122F070054A682A43984203D09C
:101B4000B04201D0A04203D122F44074CA682243BB
:101B50004C6922F08002224302608A68C2620A68ED
:101B60008262984201D1096901630121416170BD1E
:101B7000002C01400004004010B5846842EA0322B2
:101B800024F47F440A432243826010BD826822F01D
:101B900070020A4342F007018160704710B5036A82
:101BA000046A24F001040462846924F0F00444EA25
:101BB000021423F00A020A438461026210BD10B5C8
:101BC000036A23F0100303628369046A23F47043F9
:101BD00043EA023224F0A00343EA01118261016268
:101BE00010BDFEE770B52448FEF724FD64212248AD
:101BF000FEF782FC2048FEF7BFFB800534D51E4867
:101C0000FEF7BCFB80B240F628241C4DA04230D227
:101C10006420FEF789FD64211748FEF76DFC164825
:101C2000FEF7AAFB80051FD51348FEF7A7FB81B27C
:101C3000A14219D26420FEF777FD64210E48FEF719
:101C40005BFC0D48FEF798FB80050DD50A48FEF7B2
:101C500095FB80B2A04207D20949002001224870BA
:101C600008212846FEF776FEBDE870400248FEF7E0
:101C700041BD0022F4E700002C000020000C0140D0
:101C8000280000200907090E002804DB00F1E020ED
:101C900080F80014704700F00F0000F1E02080F899
:101CA000141D704702E008C8121F08C1002AFAD1AB
:101CB00070477047002001E001C1121F002AFBD1CC
:101CC000704770470448016841F004010160012138
:101CD0000846FEF7E3BE00000070004010B5FEF7B6
:101CE0004DFEFFF7D1FEFFF759FDFFF741FEFFF76D
:101CF000D7FDFFF709FEBDE81040FFF729BD000042
:101D0000FEF73CFEFFF7C0FEFFF748FDFFF730FE91
:101D1000FFF7C6FDFFF7F8FDFFF71AFD01220821C6
:101D20001C48FEF717FE1C4C1C4D00262878002886
:101D3000FCD02E7020784D2813D16078B22827D19E
:101D4000A078A32802D0592806D021E0E0785C28AA
:101D50001ED1FFF745FE04E0E078A62818D1FEF773
:101D600070FA2078842813D16078FF2810D1A078E9
:101D7000812802D0012806D00AE0E0787E2807D129
:101D8000FFF72EFE04E0E078FE2801D1FEF759FAB5
:101D90002E70CBE7000C01401C0000201300002037
:101DA000000000000000000001020304060708090B
:101DB0000000000001020304D81D000800000020FC
:101DC0002C000000A41C0008041E00082C000020A9
:101DD0000C050000B41C0008010000001000000009
:101DE000000000000024F4000000000000000000DB
:101DF00000000000000000000000000000000000E3
:041E000000000000DE
:04000005080000ED02
:00000001FF
